{
  "_format": "hh-sol-artifact-1",
  "contractName": "Election",
  "sourceName": "contracts/Election.sol",
  "abi": [
    {
      "inputs": [],
      "stateMutability": "nonpayable",
      "type": "constructor"
    },
    {
      "anonymous": false,
      "inputs": [
        {
          "indexed": true,
          "internalType": "uint256",
          "name": "_candidateId",
          "type": "uint256"
        }
      ],
      "name": "candidateAdded",
      "type": "event"
    },
    {
      "anonymous": false,
      "inputs": [
        {
          "indexed": true,
          "internalType": "uint256",
          "name": "_candidateId",
          "type": "uint256"
        }
      ],
      "name": "votedEvent",
      "type": "event"
    },
    {
      "inputs": [
        {
          "internalType": "address",
          "name": "",
          "type": "address"
        }
      ],
      "name": "_candidates",
      "outputs": [
        {
          "internalType": "uint256",
          "name": "",
          "type": "uint256"
        }
      ],
      "stateMutability": "view",
      "type": "function"
    },
    {
      "inputs": [
        {
          "internalType": "address",
          "name": "_candidate",
          "type": "address"
        },
        {
          "internalType": "string",
          "name": "_name",
          "type": "string"
        }
      ],
      "name": "addCandidate",
      "outputs": [],
      "stateMutability": "nonpayable",
      "type": "function"
    },
    {
      "inputs": [],
      "name": "candidateCount",
      "outputs": [
        {
          "internalType": "uint256",
          "name": "",
          "type": "uint256"
        }
      ],
      "stateMutability": "view",
      "type": "function"
    },
    {
      "inputs": [
        {
          "internalType": "uint256",
          "name": "",
          "type": "uint256"
        }
      ],
      "name": "candidates",
      "outputs": [
        {
          "internalType": "uint256",
          "name": "id",
          "type": "uint256"
        },
        {
          "internalType": "string",
          "name": "name",
          "type": "string"
        },
        {
          "internalType": "uint256",
          "name": "VoteCount",
          "type": "uint256"
        }
      ],
      "stateMutability": "view",
      "type": "function"
    },
    {
      "inputs": [],
      "name": "candidatesCount",
      "outputs": [
        {
          "internalType": "uint256",
          "name": "",
          "type": "uint256"
        }
      ],
      "stateMutability": "view",
      "type": "function"
    },
    {
      "inputs": [
        {
          "internalType": "address",
          "name": "candidateIds",
          "type": "address"
        }
      ],
      "name": "castVote",
      "outputs": [],
      "stateMutability": "nonpayable",
      "type": "function"
    },
    {
      "inputs": [],
      "name": "owner",
      "outputs": [
        {
          "internalType": "address",
          "name": "",
          "type": "address"
        }
      ],
      "stateMutability": "view",
      "type": "function"
    },
    {
      "inputs": [
        {
          "internalType": "address",
          "name": "",
          "type": "address"
        }
      ],
      "name": "voters",
      "outputs": [
        {
          "internalType": "bool",
          "name": "",
          "type": "bool"
        }
      ],
      "stateMutability": "view",
      "type": "function"
    }
  ],
  "bytecode": "0x608060405234801561001057600080fd5b5033600160006101000a81548173ffffffffffffffffffffffffffffffffffffffff021916908373ffffffffffffffffffffffffffffffffffffffff1602179055506110cc806100616000396000f3fe608060405234801561001057600080fd5b50600436106100885760003560e01c80638da5cb5b1161005b5780638da5cb5b146101295780639a594f0614610147578063a3ec138d14610163578063a9a981a31461019357610088565b80632d35a8a21461008d5780633477ee2e146100ab57806353358fc4146100dd57806378051995146100f9575b600080fd5b6100956101b1565b6040516100a29190610753565b60405180910390f35b6100c560048036038101906100c091906107ae565b6101b7565b6040516100d49392919061086b565b60405180910390f35b6100f760048036038101906100f29190610907565b610269565b005b610113600480360381019061010e9190610907565b61048c565b6040516101209190610753565b60405180910390f35b6101316104a4565b60405161013e9190610943565b60405180910390f35b610161600480360381019061015c9190610a93565b6104ca565b005b61017d60048036038101906101789190610907565b610711565b60405161018a9190610b0a565b60405180910390f35b61019b610731565b6040516101a89190610753565b60405180910390f35b60005481565b60026020528060005260406000206000915090508060000154908060010180546101e090610b54565b80601f016020809104026020016040519081016040528092919081815260200182805461020c90610b54565b80156102595780601f1061022e57610100808354040283529160200191610259565b820191906000526020600020905b81548152906001019060200180831161023c57829003601f168201915b5050505050908060020154905083565b6000600360008373ffffffffffffffffffffffffffffffffffffffff1673ffffffffffffffffffffffffffffffffffffffff1681526020019081526020016000205490506000600360003373ffffffffffffffffffffffffffffffffffffffff1673ffffffffffffffffffffffffffffffffffffffff168152602001908152602001600020541461032f576040517f08c379a000000000000000000000000000000000000000000000000000000000815260040161032690610bd1565b60405180910390fd5b600460003373ffffffffffffffffffffffffffffffffffffffff1673ffffffffffffffffffffffffffffffffffffffff16815260200190815260200160002060009054906101000a900460ff161561038657600080fd5b60008111801561039857506000548111155b6103d7576040517f08c379a00000000000000000000000000000000000000000000000000000000081526004016103ce90610c3d565b60405180910390fd5b6001600460003373ffffffffffffffffffffffffffffffffffffffff1673ffffffffffffffffffffffffffffffffffffffff16815260200190815260200160002060006101000a81548160ff02191690831515021790555060026000828152602001908152602001600020600201600081548092919061045690610c8c565b9190505550807ffff3c900d938d21d0990d786e819f29b8d05c1ef587b462b939609625b684b1660405160405180910390a25050565b60036020528060005260406000206000915090505481565b600160009054906101000a900473ffffffffffffffffffffffffffffffffffffffff1681565b600160009054906101000a900473ffffffffffffffffffffffffffffffffffffffff1673ffffffffffffffffffffffffffffffffffffffff163373ffffffffffffffffffffffffffffffffffffffff161461055a576040517f08c379a000000000000000000000000000000000000000000000000000000000815260040161055190610d20565b60405180910390fd5b600a60005411156105a0576040517f08c379a000000000000000000000000000000000000000000000000000000000815260040161059790610d8c565b60405180910390fd5b6000600360008473ffffffffffffffffffffffffffffffffffffffff1673ffffffffffffffffffffffffffffffffffffffff1681526020019081526020016000205414610622576040517f08c379a000000000000000000000000000000000000000000000000000000000815260040161061990610df8565b60405180910390fd5b60008081548092919061063490610c8c565b9190505550600054600360008473ffffffffffffffffffffffffffffffffffffffff1673ffffffffffffffffffffffffffffffffffffffff1681526020019081526020016000208190555060405180606001604052806000548152602001828152602001600081525060026000805481526020019081526020016000206000820151816000015560208201518160010190816106d09190610fc4565b50604082015181600201559050506000547f58b6df71f7457b483a796c1077e42ea827427ecccb2156d374fe8e03524ccdc560405160405180910390a25050565b60046020528060005260406000206000915054906101000a900460ff1681565b60008054905090565b6000819050919050565b61074d8161073a565b82525050565b60006020820190506107686000830184610744565b92915050565b6000604051905090565b600080fd5b600080fd5b61078b8161073a565b811461079657600080fd5b50565b6000813590506107a881610782565b92915050565b6000602082840312156107c4576107c3610778565b5b60006107d284828501610799565b91505092915050565b600081519050919050565b600082825260208201905092915050565b60005b838110156108155780820151818401526020810190506107fa565b60008484015250505050565b6000601f19601f8301169050919050565b600061083d826107db565b61084781856107e6565b93506108578185602086016107f7565b61086081610821565b840191505092915050565b60006060820190506108806000830186610744565b81810360208301526108928185610832565b90506108a16040830184610744565b949350505050565b600073ffffffffffffffffffffffffffffffffffffffff82169050919050565b60006108d4826108a9565b9050919050565b6108e4816108c9565b81146108ef57600080fd5b50565b600081359050610901816108db565b92915050565b60006020828403121561091d5761091c610778565b5b600061092b848285016108f2565b91505092915050565b61093d816108c9565b82525050565b60006020820190506109586000830184610934565b92915050565b600080fd5b600080fd5b7f4e487b7100000000000000000000000000000000000000000000000000000000600052604160045260246000fd5b6109a082610821565b810181811067ffffffffffffffff821117156109bf576109be610968565b5b80604052505050565b60006109d261076e565b90506109de8282610997565b919050565b600067ffffffffffffffff8211156109fe576109fd610968565b5b610a0782610821565b9050602081019050919050565b82818337600083830152505050565b6000610a36610a31846109e3565b6109c8565b905082815260208101848484011115610a5257610a51610963565b5b610a5d848285610a14565b509392505050565b600082601f830112610a7a57610a7961095e565b5b8135610a8a848260208601610a23565b91505092915050565b60008060408385031215610aaa57610aa9610778565b5b6000610ab8858286016108f2565b925050602083013567ffffffffffffffff811115610ad957610ad861077d565b5b610ae585828601610a65565b9150509250929050565b60008115159050919050565b610b0481610aef565b82525050565b6000602082019050610b1f6000830184610afb565b92915050565b7f4e487b7100000000000000000000000000000000000000000000000000000000600052602260045260246000fd5b60006002820490506001821680610b6c57607f821691505b602082108103610b7f57610b7e610b25565b5b50919050565b7f43616e6469646174652043616e206e6f7420766f746500000000000000000000600082015250565b6000610bbb6016836107e6565b9150610bc682610b85565b602082019050919050565b60006020820190508181036000830152610bea81610bae565b9050919050565b7f496e76616c69642043616e646964617465204964000000000000000000000000600082015250565b6000610c276014836107e6565b9150610c3282610bf1565b602082019050919050565b60006020820190508181036000830152610c5681610c1a565b9050919050565b7f4e487b7100000000000000000000000000000000000000000000000000000000600052601160045260246000fd5b6000610c978261073a565b91507fffffffffffffffffffffffffffffffffffffffffffffffffffffffffffffffff8203610cc957610cc8610c5d565b5b600182019050919050565b7f4e6f74206f776e65720000000000000000000000000000000000000000000000600082015250565b6000610d0a6009836107e6565b9150610d1582610cd4565b602082019050919050565b60006020820190508181036000830152610d3981610cfd565b9050919050565b7f4e6f206d6f7265207468616e2031302043616e64696461746573000000000000600082015250565b6000610d76601a836107e6565b9150610d8182610d40565b602082019050919050565b60006020820190508181036000830152610da581610d69565b9050919050565b7f43616e64696461746520616c7265616479206578697374730000000000000000600082015250565b6000610de26018836107e6565b9150610ded82610dac565b602082019050919050565b60006020820190508181036000830152610e1181610dd5565b9050919050565b60008190508160005260206000209050919050565b60006020601f8301049050919050565b600082821b905092915050565b600060088302610e7a7fffffffffffffffffffffffffffffffffffffffffffffffffffffffffffffffff82610e3d565b610e848683610e3d565b95508019841693508086168417925050509392505050565b6000819050919050565b6000610ec1610ebc610eb78461073a565b610e9c565b61073a565b9050919050565b6000819050919050565b610edb83610ea6565b610eef610ee782610ec8565b848454610e4a565b825550505050565b600090565b610f04610ef7565b610f0f818484610ed2565b505050565b5b81811015610f3357610f28600082610efc565b600181019050610f15565b5050565b601f821115610f7857610f4981610e18565b610f5284610e2d565b81016020851015610f61578190505b610f75610f6d85610e2d565b830182610f14565b50505b505050565b600082821c905092915050565b6000610f9b60001984600802610f7d565b1980831691505092915050565b6000610fb48383610f8a565b9150826002028217905092915050565b610fcd826107db565b67ffffffffffffffff811115610fe657610fe5610968565b5b610ff08254610b54565b610ffb828285610f37565b600060209050601f83116001811461102e576000841561101c578287015190505b6110268582610fa8565b86555061108e565b601f19841661103c86610e18565b60005b828110156110645784890151825560018201915060208501945060208101905061103f565b86831015611081578489015161107d601f891682610f8a565b8355505b6001600288020188555050505b50505050505056fea26469706673582212208f525b1fad52c3b48571cee91b0f2c7372190b4885148e784838cdb01e79a7dd64736f6c63430008120033",
  "linkReferences": {},
  "deployedLinkReferences": {}
}